:100000000C942A000C9434000C9434000C943400AA
:100010000C9434000C9434000C9434000C94340090
:100020000C9434000C9434000C9434000C94340080
:100030000C9434000C9434000C9434000C94340070
:100040000C9434000C9434000C9434000C94340060
:100050000C94340011241FBECFE5D8E0DEBFCDBF25
:100060000E9436000C9444000C94000081E087BB91
:1000700081E088BB85E38A95F1F7000018BA85E333
:0C0080008A95F1F70000F4CFF894FFCF50
:00000001FF
