S00C0000706F73652E7372656361
S11300000C942A000C9447000C9447000C9447006D
S11300100C9447000C9447000C9447000C94470040
S11300200C9447000C9447000C9447000C94470030
S11300300C9447000C9447000C9447000C94470020
S11300400C9447000C9447000C9447000C94470010
S11300500C94470011241FBECFE5D8E0DEBFCDBF0E
S113006010E0A0E6B0E0E4E3F5E102C005900D92F3
S1130070AC3EB107D9F721E0ACEEB0E001C01D926F
S1130080A531B207E1F70E9481040C94980A0C94FC
S1130090000095B39F70282F207F922B95BB95B3BA
S11300A09E7F95BB95B3926095BB35E03A95F1F789
S11300B0000095B39D7F95BBEFE1F3E03197F1F735
S11300C000C0000025B3F0E18F9FC0011124922FDE
S11300D09F70892B85BB85B3826085BB35E03A95DB
S11300E0F1F7000085B38D7F85BB8FE39FE1019716
S11300F0F1F700C00000089595B39F70282F207F6A
S1130100922B95BB95B3916095BB95B3926095BBCB
S113011035E03A95F1F7000095B39D7F95BBEFE18B
S1130120F3E03197F1F700C0000025B3F0E18F9FB1
S1130130C0011124922F9F70892B85BB85B38260E7
S113014085BB35E03A95F1F7000085B38D7F85BB1B
S11301508FE39FE10197F1F700C0000008958FEF4E
S113016084BB2FEF89EF90E0215080409040E1F76D
S113017000C0000082E00E94490088E20E94490019
S11301808CE00E94490086E00E94490081E00E94C0
S113019049008FE39FE10197F1F700C00000089543
S11301A00F931F93CF93DF938C01C0E0D0E003C083
S11301B00E947C002196F801EC0FFD1F80818111C3
S11301C0F7CFDF91CF911F910F91089584E10E94A1
S11301D0490084E10E94490084E10E94490084E1CD
S11301E00E94490084E10E94490084E10E94490080
S11301F008951ABA87E886B980E487B9089597B153
S11302008F70982B97B986B1806486B9349BFECFE2
S113021035E33A95F1F7000024B185B13FEF839FB0
S1130220C0011124820F911D08956091F600709110
S1130230F700072E000C880B990B0E94E306AB0114
S1130240BC01409308015093090160930A01709323
S11302500B0184E190E00E94370A8091F6009091AE
S1130260F700181619068CF01092F7001092F60099
S11302701092F5001092F4001092F3001092F20024
S11302801092F1001092F00030C064E170E00E941E
S113029047078FE0869FA001879F500D112450933C
S11302A0F5004093F400FA01F695E795F695E79585
S11302B09F01ABE7B4E10E945B079695879564E6DE
S11302C0689F9001699F300D1124CA01821B930B12
S11302D09093F3008093F2009F010E945B07969530
S11302E087959093F1008093F00080E90E94490083
S11302F00E94E60084E10E94490084E10E944900D2
S113030084E10E9449008091F1008F938091F00074
S11303108F9384E690E09F938F9386E091E09F9380
S11303208F930E947E078091F0009091F1000F90CE
S11303300F900F900F900F900F900A9748F48BED49
S113034090E00E94D00086E091E00E94D00004C0BA
S113035086E091E00E94D00084E10E9449008091EF
S1130360F3008F938091F2008F9384E690E09F9343
S11303708F9386E091E09F938F930E947E078091F4
S1130380F2009091F3000F900F900F900F900F9048
S11303900F90009749F48BE690E00E94D0008BE622
S11303A090E00E94D00008950A9748F48BE690E00C
S11303B00E94D00086E091E00E94D000089586E07B
S11303C091E00E94D00008956091F6007091F700CA
S11303D0072E000C880B990B0E94E306AB01BC01AD
S11303E0409308015093090160930A0170930B0133
S11303F084E190E00E94370A8091F6009091F70022
S1130400181619068CF01092F7001092F60010924C
S1130410F5001092F4001092F3001092F200109282
S1130420F1001092F00030C064E170E00E944707D0
S11304308FE0869FA001879F500D11245093F500F3
S11304404093F400FA01F695E795F695E7959F0138
S1130450ABE7B4E10E945B079695879564E6689FD5
S11304609001699F300D1124CA01821B930B909354
S1130470F3008093F2009F010E945B079695879595
S11304809093F1008093F00083EC0E9449008091E6
S1130490F1008F938091F0008F9384E690E09F9316
S11304A08F9386E091E09F938F930E947E078091C3
S11304B0F0009091F1000F900F900F900F900F901B
S11304C00F900A9748F48BED90E00E94D00086E0EC
S11304D091E00E94D00004C086E091E00E94D00028
S11304E087E690E00E94D0008091F3008F93809182
S11304F0F2008F9384E690E09F938F9386E091E0DF
S11305009F938F930E947E078091F2009091F30055
S11305100F900F900F900F900F900F90009749F449
S11305208BE690E00E94D0008BE690E00E94D00021
S113053008950A9748F48BE690E00E94D00086E084
S113054091E00E94D000089586E091E00E94D000DE
S1130550089580E00E94FF00FC01EE0FFF1FEE0FE4
S1130560FF1FF0931401E09313019F01AFEAB7E476
S11305700E945B07AF01481B590B56954795840FA2
S1130580951F929582958F7089279F70892748E2DD
S1130590489F9001499F300D11243093ED00209322
S11305A0EC009F0136952795369527953695279526
S11305B0A5ECB0E20E945B07929582958F70892723
S11305C09F7089279093FB008093FA009F938F93E9
S11305D084E690E09F938F9382E191E09F938F93C1
S11305E00E947E0780EC0E94490084E10E94490039
S11305F084E10E94490084E10E9449008091FA004C
S11306009091FB000F900F900F900F900F900F9010
S1130610892B29F48BE690E00E94D00004C082E18B
S113062091E00E94D00087E690E00E94D0004091C3
S1130630FA005091FB0088EE93E0489F9001499F97
S1130640300D589F300D11248091130190911401A5
S1130650821B930B9093FB008093FA009F938F93DC
S113066084E690E09F938F9382E091E09F938F9331
S11306700E947E078091FA009091FB000F900F90EA
S11306800F900F900F900F90009729F489E690E057
S11306900E94D0001CC08A30910548F48AE690E09C
S11306A00E94D00082E091E00E94D00010C0843605
S11306B0910548F48BE690E00E94D00082E091E03E
S11306C00E94D00004C082E091E00E94D000109209
S11306D0F9001092F80008955BC06091F6007091E3
S11306E0F700072E000C880B990B0E94E306AB0160
S11306F0BC01409308015093090160930A0170936F
S11307000B0184E190E00E94370A8091F6009091F9
S1130710F70001979093F7008093F60064E170E08E
S11307200E944707892B51F40E9415018091EE0025
S11307309091EF00892B11F40E94E401879B16C06D
S11307402FEF80E792E0215080409040E1F700C015
S11307500000879B0BC0809160009091610091958F
S113076081959109909361008093600088B38160C2
S113077088BB8FE99FE00197F1F700C0000088B3C0
S11307808E7F88BB8FE99FE00197F1F700C00000DE
S1130790839908C080916000909161001816190631
S11307A00CF49BCF8FE39CE90197F1F700C00000A4
S11307B0839909C080916000909161001816190610
S11307C014F40E946C031092F7001092F60008953E
S11307D0CF93DF93EC011092FD001092FC0059C0FE
S11307E001969093FD008093FC00879B16C02FEF29
S11307F081EE94E0215080409040E1F700C0000079
S1130800879B0BC0809160009091610091958195C8
S1130810910990936100809360008091F60090911B
S1130820F70064E170E00E944707892B51F40E94AD
S113083015018091EE009091EF00892B11F40E9434
S1130840E4018091600090916100181619060CF57E
S11308502091F6003091F70080916200909163003E
S1130860820F931F9093F7008093F60098B381E072
S1130870982798BBEFE5FAEE3197F1F700C0000036
S113088098B3892788BB8FE59AEE0197F1F700C0EA
S113089000008091FC009091FD008C179D070CF4E2
S11308A09FCFDF91CF91089580E80E9449008DE6A3
S11308B090E00E94D00088B38F7E88BB88B38D7F80
S11308C088BB0E946C0388B3826088BB8DE491E08E
S11308D090930F0180930E010E94E80380E80E9428
S11308E049008BE790E00E94D00088B3806188BB08
S11308F080910E0190910F019093F7008093F60080
S1130900089584E190E00E94310A60930801709395
S1130910090180930A0190930B010E94AB06709326
S1130920F7006093F600161617068CF01092F70085
S11309301092F6001092F5001092F4001092F30059
S11309401092F2001092F1001092F00031C0CB012D
S113095064E170E00E9447078FE0869FA001879FB3
S1130960500D11245093F5004093F400FA01F695CC
S1130970E795F695E7959F01ABE7B4E10E945B0725
S11309809695879564E6689F9001699F300D1124C0
S1130990CA01821B930B9093F3008093F2009F0192
S11309A00E945B07969587959093F1008093F000E1
S11309B00E94F90084B7806884BF84B7806884BFCC
S11309C087B3836187BB81B381BB8FEF82BB0E94F6
S11309D0AF0080E80E9449008BE790E00E94D000BD
S11309E080EC0E94490086E890E00E94D00080E9F3
S11309F00E94490081E990E00E94D00084E10E94B5
S1130A00490084E10E94490087E690E00E94D000FA
S1130A1084E10E94490084E10E9449008BE990E04E
S1130A200E94D00080ED0E944900B39B05C08EE96E
S1130A3090E00E94D000DDC08BEA90E00E94D000DC
S1130A400E945404D6C0879B14C08091600090918A
S1130A506100919581959109909361008093600064
S1130A602FEF89E698E1215080409040E1F700C0E3
S1130A700000B39B21C081E090E09093EF0080934D
S1130A80EE002FEF89E698E1215080409040E1F795
S1130A9000C0000080EC0E94490087EB90E00E94B7
S1130AA0D00080ED0E94490082EC90E00E94D000CA
S1130AB00E94A9020E9454048091F6009091F700CC
S1130AC064E170E00E944707892B21F40E9415011C
S1130AD00E94E401839B0CC08FE39CE90197F1F72A
S1130AE000C00000839B04C01092F7001092F6002F
S1130AF0829B0EC08FE39CE90197F1F700C00000D0
S1130B00829B06C080E49FE19093F7008093F600F7
S1130B10849B34C080E80E94490081ED90E00E94EB
S1130B20D00088B38F7E88BB839B0DC08FE39CE984
S1130B300197F1F700C00000839B16C01092F700E4
S1130B401092F60011C081E090E0909363008093CE
S1130B50620088B3826088BB84E190E090930F01C7
S1130B6080930E010E94E80380E80E9449008BE70D
S1130B7090E00E94D00088B3806188BB859B36C01A
S1130B8080E80E94490081ED90E00E94D00088B383
S1130B908F7E88BB829B0FC08FE39CE90197F1F79E
S1130BA000C00000829B18C080E49FE19093F7008E
S1130BB08093F60011C08FEF9FEF909363008093B2
S1130BC0620088B38D7F88BB84E190E090930F012D
S1130BD080930E010E94E80380E80E9449008BE79D
S1130BE090E00E94D00088B3806188BB81990E9404
S1130BF054048091EE009091EF00892B09F423CFE7
S1130C00A2C0879B14C0809160009091610091956F
S1130C108195910990936100809360009FEF29E68C
S1130C2088E1915020408040E1F700C00000B29B71
S1130C301DC09FEF29E688E1915020408040E1F7F4
S1130C4000C0000080EC0E94490086E890E00E9409
S1130C50D00080ED0E9449008DED90E00E94D0000C
S1130C601092EF001092EE000E9454048091F6005E
S1130C709091F70064E170E00E944707892B61F4CA
S1130C800E94150180E80E94490081ED90E00E94D5
S1130C90D00088B38F7E88BB8091F8009091F900D2
S1130CA0459710F00E94A9028091F8009091F900F4
S1130CB001969093F9008093F80081E090E090937E
S1130CC01101809310012091F6003091F70080917A
S1130CD0EC009091ED008217930750F488B38D7F58
S1130CE088BB8FEF9FEF90936300809362001DC0D9
S1130CF02817390750F488B3826088BB81E090E0FC
S1130D00909363008093620010C08FEF9FEF9093E5
S1130D1011018093100180E80E9449008BE790E064
S1130D200E94D00088B3806188BB809110019091AB
S1130D301101019741F481E090E090930F018093B9
S1130D400E010E94E8038091EE009091EF0001975C
S1130D5009F457CF4ECF0E94B2066894B1110C9497
S1130D60410708950E94260788F09F5798F0B92FED
S1130D709927B751B0F0E1F0660F771F881F991FCC
S1130D801AF0BA95C9F714C0B13091F00E94400727
S1130D90B1E008950C944007672F782F8827B85F37
S1130DA039F0B93FCCF3869577956795B395D9F724
S1130DB03EF490958095709561957F4F8F4F9F4F2E
S1130DC00895E89409C097FB3EF49095809570953A
S1130DD061957F4F8F4F9F4F9923A9F0F92F96E983
S1130DE0BB279395F695879577956795B795F111F8
S1130DF0F8CFFAF4BB0F11F460FF1BC06F5F7F4F95
S1130E008F4F9F4F16C0882311F096E911C07723A6
S1130E1021F09EE8872F762F05C0662371F096E8AF
S1130E20862F70E060E02AF09A95660F771F881F7E
S1130E30DAF7880F9695879597F9089557FD905896
S1130E40440F551F59F05F3F71F04795880F97FB8A
S1130E50991F61F09F3F79F0879508951216130644
S1130E601406551FF2CF4695F1DF08C01616170673
S1130E701806991FF1CF86957105610508940895A8
S1130E80E894BB2766277727CB0197F9089597FB4A
S1130E90072E16F4009407D077FD09D00E946A0744
S1130EA007FC05D03EF4909581959F4F0895709569
S1130EB061957F4F0895A29FB001B39FC001A39F86
S1130EC0700D811D1124911DB29F700D811D11247F
S1130ED0911D0895AA1BBB1B51E107C0AA1FBB1F8C
S1130EE0A617B70710F0A61BB70B881F991F5A95B2
S1130EF0A9F780959095BC01CD010895AEE0B0E0CE
S1130F00E4E8F7E00C946F0A0D891E8986E08C836F
S1130F101A8309838FEF9FE79E838D83AE01475E1B
S1130F205F4F6F89788DCE0101960E94A007EF81F3
S1130F30F885E00FF11F10822E96E4E00C948B0AE2
S1130F40ABE0B0E0E6EAF7E00C94610A6C017B01E7
S1130F508A01FC0117821682838181FFCCC1CE01F4
S1130F6001963C01F6019381F70193FD859193FF6E
S1130F7081917F01882309F4BAC1853239F493FD44
S1130F80859193FF81917F01853229F4B60190E028
S1130F900E949709E7CF912C212C312CFFE1F31506
S1130FA0D8F08B3279F038F4803279F08332A1F4BE
S1130FB0232D20611DC08D3261F0803369F4232D0F
S1130FC0216016C0832D8260382EE32DE4603E2E0E
S1130FD02AC0F32DF8601DC037FC2DC020ED280F6A
S1130FE02A3040F08E32B9F436FC81C1232D2064BE
S1130FF0322E19C036FE06C08AE0989E200D1124B8
S1131000922E11C0EAE02E9E200D1124222EF32DE3
S1131010F0623F2E08C08C3621F4832D8068382E70
S113102002C0883641F4F70193FD859193FF8191C5
S11310307F018111B3CF982F9F7D9554933028F46D
S11310400C5F1F4F9FE399830DC0833631F08337C4
S113105071F0833509F059C021C0F801808189837A
S11310600E5F1F4F88248394912C530113C02801D1
S1131070F2E04F0E511CF801A080B18036FE03C08F
S1131080692D70E002C06FEF7FEFC5010E948C09EB
S11310904C018201F32DFF773F2E16C0280122E078
S11310A0420E511CF801A080B18036FE03C0692DA8
S11310B070E002C06FEF7FEFC5010E9481094C010F
S11310C0F32DF0683F2E820133FC1BC0822D90E08B
S11310D088169906B0F4B60180E290E00E94970960
S11310E02A94F4CFF50137FC859137FE81915F0195
S11310F0B60190E00E94970921102A9421E0821AF7
S113110091088114910471F7E8C0843611F089368E
S113111041F5F80137FE07C06081718182819381B6
S11311200C5F1F4F08C060817181072E000C880B73
S1131130990B0E5F1F4FF32DFF763F2E97FF09C0CB
S113114090958095709561957F4F8F4F9F4FF06874
S11311503F2E2AE030E0A3010E94D309882E86188E
S113116045C0853731F4232D2F7EB22E2AE030E09E
S113117025C0932D997FB92E8F36C1F018F4883588
S113118079F0B5C0803719F0883721F0B0C0E92F65
S1131190E061BE2EB4FE0DC0FB2DF460BF2E09C06D
S11311A034FE0AC0292F2660B22E06C028E030E0A3
S11311B005C020E130E002C020E132E0F801B7FED2
S11311C007C060817181828193810C5F1F4F06C0CB
S11311D06081718180E090E00E5F1F4FA3010E9447
S11311E0D309882E8618FB2DFF773F2E36FE0DC0BF
S11311F0232D2E7FA22E891458F434FE0BC032FC0A
S113120009C0832D8E7EA82E05C0B82CA32C03C044
S1131210B82C01C0B92CA4FE0FC0FE01E80DF11DCD
S11312208081803321F49A2D997EA92E09C0A2FED3
S113123006C0B394B39404C08A2D867809F0B3949D
S1131240A3FC11C0A0FE06C0B21488F4280C922C92
S11312509B180EC0B21460F4B60180E290E00E94C4
S11312609709B394F7CFB21418F42B1802C0982C32
S1131270212CA4FE10C0B60180E390E00E949709DF
S1131280A2FE17C0A1FC03C088E790E002C088E575
S113129090E0B6010CC08A2D867859F0A1FE02C0F8
S11312A08BE201C080E2A7FC8DE2B60190E00E94CF
S11312B09709891438F4B60180E390E00E949709F5
S11312C09A94F7CF8A94F301E80DF11D8081B60159
S11312D090E00E9497098110F5CF222009F442CEB4
S11312E0B60180E290E00E9497092A94F6CFF601B5
S11312F08681978102C08FEF9FEF2B96E2E10C94D9
S11313007D0AFC010590615070400110D8F780956A
S113131090958E0F9F1F0895FC01615070400190BD
S11313200110D8F7809590958E0F9F1F08950F9305
S11313301F93CF93DF93FB01238121FD03C08FEF24
S11313409FEF2CC022FF16C046815781248135812E
S11313504217530744F4A081B1819D012F5F3F4F91
S1131360318320838C93268137812F5F3F4F3783CE
S1131370268314C08B01EC01FB010084F185E02D70
S11313800995892BE1F6D80116968D919C911797B2
S1131390019617969C938E931697CE01DF91CF9169
S11313A01F910F910895FA01AA27283051F1203195
S11313B081F1E8946F936E7F6E5F7F4F8F4F9F4FE5
S11313C0AF4FB1E03ED0B4E03CD0670F781F891F27
S11313D09A1FA11D680F791F8A1F911DA11D6A0FF5
S11313E0711D811D911DA11D20D009F468943F91A8
S11313F02AE0269F11243019305D3193DEF6CF01A7
S11314000895462F4770405D4193B3E00FD0C9F76C
S1131410F6CF462F4F70405D4A3318F0495D31FDD9
S11314204052419302D0A9F7EACFB4E0A69597952C
S1131430879577956795BA95C9F700976105710502
S113144008959B01AC010A2E06945795479537954C
S11314502795BA95C9F7620F731F841F951FA01DA6
S11314600895A6E1B0E044E050E00C94460A242F2D
S11314700E94550A252F0E94550A0C943F0A0E9487
S1131480540A272F0C94550ADC01CB01FC01E19985
S1131490FECF06C0FFBBEEBBE09A31960DB20D92B3
S11314A041505040B8F70895262FE199FECF9FBBD5
S11314B08EBB2DBB0FB6F894E29AE19A0FBE01964B
S11314C008952F923F924F925F926F927F928F92E4
S11314D09F92AF92BF92CF92DF92EF92FF920F93BF
S11314E01F93CF93DF93CDB7DEB7CA1BDB0B0FB6C9
S11314F0F894DEBF0FBECDBF09942A883988488886
S11315005F846E847D848C849B84AA84B984C8841B
S1131510DF80EE80FD800C811B81AA81B981CE0F12
S1131520D11D0FB6F894DEBF0FBECDBFED010895F7
S1071530F894FFCF59
S1131534010001002564002E0030303000486F6D36
S1131544696E672020202020202000547269676778
S11315546572204F6E0041563A20202020206B569D
S11315640044697374616E63653A006D6D004D6F78
S113157464653A52656D6F746520004D6F64653A15
S11315844C6F63616C200041563A20202020205681
S113159420004D6F64653A52656D6F746520202098
S11315A4002020202020202020202020004D6F64B3
S10F15B4653A4C6F63616C20202020001D
S90300609C
