S0120000667265715F6D657465722E73726563E8
S11300000C942A000C943F000C943F000C943F0085
S11300100C943F000C943F000C943F000C943F0060
S11300200C943F000C943F000C943F000C943F0050
S11300300C943F000C943F000C943F000C943F0040
S11300400C943F000C943F000C943F000C943F0030
S11300500C943F0011241FBECFE5D8E0DEBFCDBF16
S113006010E0A0E6B0E0EAE7F1E002C005900D92EE
S1130070AE36B107D9F70E948A000C94BB000C94E9
S113008000002AB128612AB920B5266820BDDC0108
S1130090CB01880F991FAA1FBB1F880F991FAA1F86
S11300A0BB1F9C01AD01220F331F441F551F220F9C
S11300B0331F441F551F60E072E18AE790E00E94FD
S11300C099008FEF820F89B9DA01C9010197A1095B
S11300D0B109892F9A2FAB2FBB2780BD08955F9B51
S11300E0FECF8CB108955D9BFECF8CB908950F931C
S11300F01F93CF938C01C0E003C00E947300CF5FB5
S1130100F801EC0FF11D80818111F7CFCF911F9180
S11301100F91089560E875E280E090E00E9441004C
S113012080E690E00E9477000E946F000E947300B6
S1130130FBCFA1E21A2EAA1BBB1BFD010DC0AA1FF7
S1130140BB1FEE1FFF1FA217B307E407F50720F03C
S1130150A21BB30BE40BF50B661F771F881F991FB7
S11301601A9469F760957095809590959B01AC0100
S10D0170BD01CF010895F894FFCFFC
S111017A0A09204563686F20546573742000E1
S9030000FC
